{
	"data": {
		"bytecode": {
			"linkReferences": {},
			"object": "608060405234801561001057600080fd5b50336000806101000a81548173ffffffffffffffffffffffffffffffffffffffff021916908373ffffffffffffffffffffffffffffffffffffffff160217905550611321806100606000396000f3fe608060405234801561001057600080fd5b506004361061007d5760003560e01c80638da5cb5b1161005b5780638da5cb5b146100d8578063a85c38ef146100f6578063b6adaaff1461012a578063fd84cb97146101465761007d565b806321d4209c146100825780632453ffa81461009e578063514fcac7146100bc575b600080fd5b61009c60048036038101906100979190610b21565b610162565b005b6100a6610323565b6040516100b39190610e2a565b60405180910390f35b6100d660048036038101906100d19190610b90565b610329565b005b6100e0610505565b6040516100ed9190610cf5565b60405180910390f35b610110600480360381019061010b9190610b90565b610529565b604051610121959493929190610d10565b60405180910390f35b610144600480360381019061013f9190610b90565b610634565b005b610160600480360381019061015b9190610b90565b61080c565b005b6002600081548092919061017590611017565b91905055506040518060a001604052803373ffffffffffffffffffffffffffffffffffffffff1681526020018473ffffffffffffffffffffffffffffffffffffffff168152602001838152602001828152602001600060038111156101dd576101dc61108f565b5b81525060016000600254815260200190815260200160002060008201518160000160006101000a81548173ffffffffffffffffffffffffffffffffffffffff021916908373ffffffffffffffffffffffffffffffffffffffff16021790555060208201518160010160006101000a81548173ffffffffffffffffffffffffffffffffffffffff021916908373ffffffffffffffffffffffffffffffffffffffff160217905550604082015181600201908051906020019061029f9291906109e4565b506060820151816003015560808201518160040160006101000a81548160ff021916908360038111156102d5576102d461108f565b5b02179055509050507f9850900b667e7df95593c640dda91750032ecbed25c9478b4beadf8b6a61423160025433858585604051610316959493929190610e45565b60405180910390a1505050565b60025481565b80600254811115801561033c5750600081115b61037b576040517f08c379a000000000000000000000000000000000000000000000000000000000815260040161037290610e0a565b60405180910390fd5b60006001600084815260200190815260200160002090508060000160009054906101000a900473ffffffffffffffffffffffffffffffffffffffff1673ffffffffffffffffffffffffffffffffffffffff163373ffffffffffffffffffffffffffffffffffffffff1614610424576040517f08c379a000000000000000000000000000000000000000000000000000000000815260040161041b90610dca565b60405180910390fd5b600060038111156104385761043761108f565b5b8160040160009054906101000a900460ff16600381111561045c5761045b61108f565b5b1461049c576040517f08c379a000000000000000000000000000000000000000000000000000000000815260040161049390610daa565b60405180910390fd5b60038160040160006101000a81548160ff021916908360038111156104c4576104c361108f565b5b02179055507f61b9399f2f0f32ca39ce8d7be32caed5ec22fe07a6daba3a467ed479ec606582836040516104f89190610e2a565b60405180910390a1505050565b60008054906101000a900473ffffffffffffffffffffffffffffffffffffffff1681565b60016020528060005260406000206000915090508060000160009054906101000a900473ffffffffffffffffffffffffffffffffffffffff16908060010160009054906101000a900473ffffffffffffffffffffffffffffffffffffffff169080600201805461059890610fb4565b80601f01602080910402602001604051908101604052809291908181526020018280546105c490610fb4565b80156106115780601f106105e657610100808354040283529160200191610611565b820191906000526020600020905b8154815290600101906020018083116105f457829003601f168201915b5050505050908060030154908060040160009054906101000a900460ff16905085565b60008054906101000a900473ffffffffffffffffffffffffffffffffffffffff1673ffffffffffffffffffffffffffffffffffffffff163373ffffffffffffffffffffffffffffffffffffffff16146106c2576040517f08c379a00000000000000000000000000000000000000000000000000000000081526004016106b990610d6a565b60405180910390fd5b8060025481111580156106d55750600081115b610714576040517f08c379a000000000000000000000000000000000000000000000000000000000815260040161070b90610e0a565b60405180910390fd5b60006001600084815260200190815260200160002090506001600381111561073f5761073e61108f565b5b8160040160009054906101000a900460ff1660038111156107635761076261108f565b5b146107a3576040517f08c379a000000000000000000000000000000000000000000000000000000000815260040161079a90610d8a565b60405180910390fd5b60028160040160006101000a81548160ff021916908360038111156107cb576107ca61108f565b5b02179055507fe21fe02c1589242b30be2057f54fd54b7ddc463695d19ffdb54f9ebb0584f24a836040516107ff9190610e2a565b60405180910390a1505050565b60008054906101000a900473ffffffffffffffffffffffffffffffffffffffff1673ffffffffffffffffffffffffffffffffffffffff163373ffffffffffffffffffffffffffffffffffffffff161461089a576040517f08c379a000000000000000000000000000000000000000000000000000000000815260040161089190610d6a565b60405180910390fd5b8060025481111580156108ad5750600081115b6108ec576040517f08c379a00000000000000000000000000000000000000000000000000000000081526004016108e390610e0a565b60405180910390fd5b6000600160008481526020019081526020016000209050600060038111156109175761091661108f565b5b8160040160009054906101000a900460ff16600381111561093b5761093a61108f565b5b1461097b576040517f08c379a000000000000000000000000000000000000000000000000000000000815260040161097290610dea565b60405180910390fd5b60018160040160006101000a81548160ff021916908360038111156109a3576109a261108f565b5b02179055507f07232afd803c786d2eada771790c0ff2fc5e7221909ae5c06661697d8fd9f8cb836040516109d79190610e2a565b60405180910390a1505050565b8280546109f090610fb4565b90600052602060002090601f016020900481019282610a125760008555610a59565b82601f10610a2b57805160ff1916838001178555610a59565b82800160010185558215610a59579182015b82811115610a58578251825591602001919060010190610a3d565b5b509050610a669190610a6a565b5090565b5b80821115610a83576000816000905550600101610a6b565b5090565b6000610a9a610a9584610ec4565b610e9f565b905082815260208101848484011115610ab657610ab5611121565b5b610ac1848285610f72565b509392505050565b600081359050610ad8816112bd565b92915050565b600082601f830112610af357610af261111c565b5b8135610b03848260208601610a87565b91505092915050565b600081359050610b1b816112d4565b92915050565b600080600060608486031215610b3a57610b3961112b565b5b6000610b4886828701610ac9565b935050602084013567ffffffffffffffff811115610b6957610b68611126565b5b610b7586828701610ade565b9250506040610b8686828701610b0c565b9150509250925092565b600060208284031215610ba657610ba561112b565b5b6000610bb484828501610b0c565b91505092915050565b610bc681610f11565b82525050565b610bd581610f60565b82525050565b6000610be682610ef5565b610bf08185610f00565b9350610c00818560208601610f81565b610c0981611130565b840191505092915050565b6000610c21602583610f00565b9150610c2c82611141565b604082019050919050565b6000610c44601983610f00565b9150610c4f82611190565b602082019050919050565b6000610c67601983610f00565b9150610c72826111b9565b602082019050919050565b6000610c8a602483610f00565b9150610c95826111e2565b604082019050919050565b6000610cad602683610f00565b9150610cb882611231565b604082019050919050565b6000610cd0601483610f00565b9150610cdb82611280565b602082019050919050565b610cef81610f56565b82525050565b6000602082019050610d0a6000830184610bbd565b92915050565b600060a082019050610d256000830188610bbd565b610d326020830187610bbd565b8181036040830152610d448186610bdb565b9050610d536060830185610ce6565b610d606080830184610bcc565b9695505050505050565b60006020820190508181036000830152610d8381610c14565b9050919050565b60006020820190508181036000830152610da381610c37565b9050919050565b60006020820190508181036000830152610dc381610c5a565b9050919050565b60006020820190508181036000830152610de381610c7d565b9050919050565b60006020820190508181036000830152610e0381610ca0565b9050919050565b60006020820190508181036000830152610e2381610cc3565b9050919050565b6000602082019050610e3f6000830184610ce6565b92915050565b600060a082019050610e5a6000830188610ce6565b610e676020830187610bbd565b610e746040830186610bbd565b8181036060830152610e868185610bdb565b9050610e956080830184610ce6565b9695505050505050565b6000610ea9610eba565b9050610eb58282610fe6565b919050565b6000604051905090565b600067ffffffffffffffff821115610edf57610ede6110ed565b5b610ee882611130565b9050602081019050919050565b600081519050919050565b600082825260208201905092915050565b6000610f1c82610f36565b9050919050565b6000819050610f31826112a9565b919050565b600073ffffffffffffffffffffffffffffffffffffffff82169050919050565b6000819050919050565b6000610f6b82610f23565b9050919050565b82818337600083830152505050565b60005b83811015610f9f578082015181840152602081019050610f84565b83811115610fae576000848401525b50505050565b60006002820490506001821680610fcc57607f821691505b60208210811415610fe057610fdf6110be565b5b50919050565b610fef82611130565b810181811067ffffffffffffffff8211171561100e5761100d6110ed565b5b80604052505050565b600061102282610f56565b91507fffffffffffffffffffffffffffffffffffffffffffffffffffffffffffffffff82141561105557611054611060565b5b600182019050919050565b7f4e487b7100000000000000000000000000000000000000000000000000000000600052601160045260246000fd5b7f4e487b7100000000000000000000000000000000000000000000000000000000600052602160045260246000fd5b7f4e487b7100000000000000000000000000000000000000000000000000000000600052602260045260246000fd5b7f4e487b7100000000000000000000000000000000000000000000000000000000600052604160045260246000fd5b600080fd5b600080fd5b600080fd5b600080fd5b6000601f19601f8301169050919050565b7f4f6e6c7920746865206f776e65722063616e2063616c6c20746869732066756e60008201527f6374696f6e000000000000000000000000000000000000000000000000000000602082015250565b7f4f726465722063616e6e6f7420626520636f6d706c6574656400000000000000600082015250565b7f4f726465722063616e6e6f742062652063616e63656c6c656400000000000000600082015250565b7f4f6e6c79207468652073656e6465722063616e2063616e63656c20746865206f60008201527f7264657200000000000000000000000000000000000000000000000000000000602082015250565b7f4f726465722063616e6e6f742062652064656c697665726564206f722063616e60008201527f63656c6c65640000000000000000000000000000000000000000000000000000602082015250565b7f4f7264657220646f6573206e6f74206578697374000000000000000000000000600082015250565b600481106112ba576112b961108f565b5b50565b6112c681610f11565b81146112d157600080fd5b50565b6112dd81610f56565b81146112e857600080fd5b5056fea2646970667358221220568d1775356c7fd2b423367bec56f49bef62078736dac289435c9a3fc8ac874b64736f6c63430008050033",
			"opcodes": "PUSH1 0x80 PUSH1 0x40 MSTORE CALLVALUE DUP1 ISZERO PUSH2 0x10 JUMPI PUSH1 0x0 DUP1 REVERT JUMPDEST POP CALLER PUSH1 0x0 DUP1 PUSH2 0x100 EXP DUP2 SLOAD DUP2 PUSH20 0xFFFFFFFFFFFFFFFFFFFFFFFFFFFFFFFFFFFFFFFF MUL NOT AND SWAP1 DUP4 PUSH20 0xFFFFFFFFFFFFFFFFFFFFFFFFFFFFFFFFFFFFFFFF AND MUL OR SWAP1 SSTORE POP PUSH2 0x1321 DUP1 PUSH2 0x60 PUSH1 0x0 CODECOPY PUSH1 0x0 RETURN INVALID PUSH1 0x80 PUSH1 0x40 MSTORE CALLVALUE DUP1 ISZERO PUSH2 0x10 JUMPI PUSH1 0x0 DUP1 REVERT JUMPDEST POP PUSH1 0x4 CALLDATASIZE LT PUSH2 0x7D JUMPI PUSH1 0x0 CALLDATALOAD PUSH1 0xE0 SHR DUP1 PUSH4 0x8DA5CB5B GT PUSH2 0x5B JUMPI DUP1 PUSH4 0x8DA5CB5B EQ PUSH2 0xD8 JUMPI DUP1 PUSH4 0xA85C38EF EQ PUSH2 0xF6 JUMPI DUP1 PUSH4 0xB6ADAAFF EQ PUSH2 0x12A JUMPI DUP1 PUSH4 0xFD84CB97 EQ PUSH2 0x146 JUMPI PUSH2 0x7D JUMP JUMPDEST DUP1 PUSH4 0x21D4209C EQ PUSH2 0x82 JUMPI DUP1 PUSH4 0x2453FFA8 EQ PUSH2 0x9E JUMPI DUP1 PUSH4 0x514FCAC7 EQ PUSH2 0xBC JUMPI JUMPDEST PUSH1 0x0 DUP1 REVERT JUMPDEST PUSH2 0x9C PUSH1 0x4 DUP1 CALLDATASIZE SUB DUP2 ADD SWAP1 PUSH2 0x97 SWAP2 SWAP1 PUSH2 0xB21 JUMP JUMPDEST PUSH2 0x162 JUMP JUMPDEST STOP JUMPDEST PUSH2 0xA6 PUSH2 0x323 JUMP JUMPDEST PUSH1 0x40 MLOAD PUSH2 0xB3 SWAP2 SWAP1 PUSH2 0xE2A JUMP JUMPDEST PUSH1 0x40 MLOAD DUP1 SWAP2 SUB SWAP1 RETURN JUMPDEST PUSH2 0xD6 PUSH1 0x4 DUP1 CALLDATASIZE SUB DUP2 ADD SWAP1 PUSH2 0xD1 SWAP2 SWAP1 PUSH2 0xB90 JUMP JUMPDEST PUSH2 0x329 JUMP JUMPDEST STOP JUMPDEST PUSH2 0xE0 PUSH2 0x505 JUMP JUMPDEST PUSH1 0x40 MLOAD PUSH2 0xED SWAP2 SWAP1 PUSH2 0xCF5 JUMP JUMPDEST PUSH1 0x40 MLOAD DUP1 SWAP2 SUB SWAP1 RETURN JUMPDEST PUSH2 0x110 PUSH1 0x4 DUP1 CALLDATASIZE SUB DUP2 ADD SWAP1 PUSH2 0x10B SWAP2 SWAP1 PUSH2 0xB90 JUMP JUMPDEST PUSH2 0x529 JUMP JUMPDEST PUSH1 0x40 MLOAD PUSH2 0x121 SWAP6 SWAP5 SWAP4 SWAP3 SWAP2 SWAP1 PUSH2 0xD10 JUMP JUMPDEST PUSH1 0x40 MLOAD DUP1 SWAP2 SUB SWAP1 RETURN JUMPDEST PUSH2 0x144 PUSH1 0x4 DUP1 CALLDATASIZE SUB DUP2 ADD SWAP1 PUSH2 0x13F SWAP2 SWAP1 PUSH2 0xB90 JUMP JUMPDEST PUSH2 0x634 JUMP JUMPDEST STOP JUMPDEST PUSH2 0x160 PUSH1 0x4 DUP1 CALLDATASIZE SUB DUP2 ADD SWAP1 PUSH2 0x15B SWAP2 SWAP1 PUSH2 0xB90 JUMP JUMPDEST PUSH2 0x80C JUMP JUMPDEST STOP JUMPDEST PUSH1 0x2 PUSH1 0x0 DUP2 SLOAD DUP1 SWAP3 SWAP2 SWAP1 PUSH2 0x175 SWAP1 PUSH2 0x1017 JUMP JUMPDEST SWAP2 SWAP1 POP SSTORE POP PUSH1 0x40 MLOAD DUP1 PUSH1 0xA0 ADD PUSH1 0x40 MSTORE DUP1 CALLER PUSH20 0xFFFFFFFFFFFFFFFFFFFFFFFFFFFFFFFFFFFFFFFF AND DUP2 MSTORE PUSH1 0x20 ADD DUP5 PUSH20 0xFFFFFFFFFFFFFFFFFFFFFFFFFFFFFFFFFFFFFFFF AND DUP2 MSTORE PUSH1 0x20 ADD DUP4 DUP2 MSTORE PUSH1 0x20 ADD DUP3 DUP2 MSTORE PUSH1 0x20 ADD PUSH1 0x0 PUSH1 0x3 DUP2 GT ISZERO PUSH2 0x1DD JUMPI PUSH2 0x1DC PUSH2 0x108F JUMP JUMPDEST JUMPDEST DUP2 MSTORE POP PUSH1 0x1 PUSH1 0x0 PUSH1 0x2 SLOAD DUP2 MSTORE PUSH1 0x20 ADD SWAP1 DUP2 MSTORE PUSH1 0x20 ADD PUSH1 0x0 KECCAK256 PUSH1 0x0 DUP3 ADD MLOAD DUP2 PUSH1 0x0 ADD PUSH1 0x0 PUSH2 0x100 EXP DUP2 SLOAD DUP2 PUSH20 0xFFFFFFFFFFFFFFFFFFFFFFFFFFFFFFFFFFFFFFFF MUL NOT AND SWAP1 DUP4 PUSH20 0xFFFFFFFFFFFFFFFFFFFFFFFFFFFFFFFFFFFFFFFF AND MUL OR SWAP1 SSTORE POP PUSH1 0x20 DUP3 ADD MLOAD DUP2 PUSH1 0x1 ADD PUSH1 0x0 PUSH2 0x100 EXP DUP2 SLOAD DUP2 PUSH20 0xFFFFFFFFFFFFFFFFFFFFFFFFFFFFFFFFFFFFFFFF MUL NOT AND SWAP1 DUP4 PUSH20 0xFFFFFFFFFFFFFFFFFFFFFFFFFFFFFFFFFFFFFFFF AND MUL OR SWAP1 SSTORE POP PUSH1 0x40 DUP3 ADD MLOAD DUP2 PUSH1 0x2 ADD SWAP1 DUP1 MLOAD SWAP1 PUSH1 0x20 ADD SWAP1 PUSH2 0x29F SWAP3 SWAP2 SWAP1 PUSH2 0x9E4 JUMP JUMPDEST POP PUSH1 0x60 DUP3 ADD MLOAD DUP2 PUSH1 0x3 ADD SSTORE PUSH1 0x80 DUP3 ADD MLOAD DUP2 PUSH1 0x4 ADD PUSH1 0x0 PUSH2 0x100 EXP DUP2 SLOAD DUP2 PUSH1 0xFF MUL NOT AND SWAP1 DUP4 PUSH1 0x3 DUP2 GT ISZERO PUSH2 0x2D5 JUMPI PUSH2 0x2D4 PUSH2 0x108F JUMP JUMPDEST JUMPDEST MUL OR SWAP1 SSTORE POP SWAP1 POP POP PUSH32 0x9850900B667E7DF95593C640DDA91750032ECBED25C9478B4BEADF8B6A614231 PUSH1 0x2 SLOAD CALLER DUP6 DUP6 DUP6 PUSH1 0x40 MLOAD PUSH2 0x316 SWAP6 SWAP5 SWAP4 SWAP3 SWAP2 SWAP1 PUSH2 0xE45 JUMP JUMPDEST PUSH1 0x40 MLOAD DUP1 SWAP2 SUB SWAP1 LOG1 POP POP POP JUMP JUMPDEST PUSH1 0x2 SLOAD DUP2 JUMP JUMPDEST DUP1 PUSH1 0x2 SLOAD DUP2 GT ISZERO DUP1 ISZERO PUSH2 0x33C JUMPI POP PUSH1 0x0 DUP2 GT JUMPDEST PUSH2 0x37B JUMPI PUSH1 0x40 MLOAD PUSH32 0x8C379A000000000000000000000000000000000000000000000000000000000 DUP2 MSTORE PUSH1 0x4 ADD PUSH2 0x372 SWAP1 PUSH2 0xE0A JUMP JUMPDEST PUSH1 0x40 MLOAD DUP1 SWAP2 SUB SWAP1 REVERT JUMPDEST PUSH1 0x0 PUSH1 0x1 PUSH1 0x0 DUP5 DUP2 MSTORE PUSH1 0x20 ADD SWAP1 DUP2 MSTORE PUSH1 0x20 ADD PUSH1 0x0 KECCAK256 SWAP1 POP DUP1 PUSH1 0x0 ADD PUSH1 0x0 SWAP1 SLOAD SWAP1 PUSH2 0x100 EXP SWAP1 DIV PUSH20 0xFFFFFFFFFFFFFFFFFFFFFFFFFFFFFFFFFFFFFFFF AND PUSH20 0xFFFFFFFFFFFFFFFFFFFFFFFFFFFFFFFFFFFFFFFF AND CALLER PUSH20 0xFFFFFFFFFFFFFFFFFFFFFFFFFFFFFFFFFFFFFFFF AND EQ PUSH2 0x424 JUMPI PUSH1 0x40 MLOAD PUSH32 0x8C379A000000000000000000000000000000000000000000000000000000000 DUP2 MSTORE PUSH1 0x4 ADD PUSH2 0x41B SWAP1 PUSH2 0xDCA JUMP JUMPDEST PUSH1 0x40 MLOAD DUP1 SWAP2 SUB SWAP1 REVERT JUMPDEST PUSH1 0x0 PUSH1 0x3 DUP2 GT ISZERO PUSH2 0x438 JUMPI PUSH2 0x437 PUSH2 0x108F JUMP JUMPDEST JUMPDEST DUP2 PUSH1 0x4 ADD PUSH1 0x0 SWAP1 SLOAD SWAP1 PUSH2 0x100 EXP SWAP1 DIV PUSH1 0xFF AND PUSH1 0x3 DUP2 GT ISZERO PUSH2 0x45C JUMPI PUSH2 0x45B PUSH2 0x108F JUMP JUMPDEST JUMPDEST EQ PUSH2 0x49C JUMPI PUSH1 0x40 MLOAD PUSH32 0x8C379A000000000000000000000000000000000000000000000000000000000 DUP2 MSTORE PUSH1 0x4 ADD PUSH2 0x493 SWAP1 PUSH2 0xDAA JUMP JUMPDEST PUSH1 0x40 MLOAD DUP1 SWAP2 SUB SWAP1 REVERT JUMPDEST PUSH1 0x3 DUP2 PUSH1 0x4 ADD PUSH1 0x0 PUSH2 0x100 EXP DUP2 SLOAD DUP2 PUSH1 0xFF MUL NOT AND SWAP1 DUP4 PUSH1 0x3 DUP2 GT ISZERO PUSH2 0x4C4 JUMPI PUSH2 0x4C3 PUSH2 0x108F JUMP JUMPDEST JUMPDEST MUL OR SWAP1 SSTORE POP PUSH32 0x61B9399F2F0F32CA39CE8D7BE32CAED5EC22FE07A6DABA3A467ED479EC606582 DUP4 PUSH1 0x40 MLOAD PUSH2 0x4F8 SWAP2 SWAP1 PUSH2 0xE2A JUMP JUMPDEST PUSH1 0x40 MLOAD DUP1 SWAP2 SUB SWAP1 LOG1 POP POP POP JUMP JUMPDEST PUSH1 0x0 DUP1 SLOAD SWAP1 PUSH2 0x100 EXP SWAP1 DIV PUSH20 0xFFFFFFFFFFFFFFFFFFFFFFFFFFFFFFFFFFFFFFFF AND DUP2 JUMP JUMPDEST PUSH1 0x1 PUSH1 0x20 MSTORE DUP1 PUSH1 0x0 MSTORE PUSH1 0x40 PUSH1 0x0 KECCAK256 PUSH1 0x0 SWAP2 POP SWAP1 POP DUP1 PUSH1 0x0 ADD PUSH1 0x0 SWAP1 SLOAD SWAP1 PUSH2 0x100 EXP SWAP1 DIV PUSH20 0xFFFFFFFFFFFFFFFFFFFFFFFFFFFFFFFFFFFFFFFF AND SWAP1 DUP1 PUSH1 0x1 ADD PUSH1 0x0 SWAP1 SLOAD SWAP1 PUSH2 0x100 EXP SWAP1 DIV PUSH20 0xFFFFFFFFFFFFFFFFFFFFFFFFFFFFFFFFFFFFFFFF AND SWAP1 DUP1 PUSH1 0x2 ADD DUP1 SLOAD PUSH2 0x598 SWAP1 PUSH2 0xFB4 JUMP JUMPDEST DUP1 PUSH1 0x1F ADD PUSH1 0x20 DUP1 SWAP2 DIV MUL PUSH1 0x20 ADD PUSH1 0x40 MLOAD SWAP1 DUP2 ADD PUSH1 0x40 MSTORE DUP1 SWAP3 SWAP2 SWAP1 DUP2 DUP2 MSTORE PUSH1 0x20 ADD DUP3 DUP1 SLOAD PUSH2 0x5C4 SWAP1 PUSH2 0xFB4 JUMP JUMPDEST DUP1 ISZERO PUSH2 0x611 JUMPI DUP1 PUSH1 0x1F LT PUSH2 0x5E6 JUMPI PUSH2 0x100 DUP1 DUP4 SLOAD DIV MUL DUP4 MSTORE SWAP2 PUSH1 0x20 ADD SWAP2 PUSH2 0x611 JUMP JUMPDEST DUP3 ADD SWAP2 SWAP1 PUSH1 0x0 MSTORE PUSH1 0x20 PUSH1 0x0 KECCAK256 SWAP1 JUMPDEST DUP2 SLOAD DUP2 MSTORE SWAP1 PUSH1 0x1 ADD SWAP1 PUSH1 0x20 ADD DUP1 DUP4 GT PUSH2 0x5F4 JUMPI DUP3 SWAP1 SUB PUSH1 0x1F AND DUP3 ADD SWAP2 JUMPDEST POP POP POP POP POP SWAP1 DUP1 PUSH1 0x3 ADD SLOAD SWAP1 DUP1 PUSH1 0x4 ADD PUSH1 0x0 SWAP1 SLOAD SWAP1 PUSH2 0x100 EXP SWAP1 DIV PUSH1 0xFF AND SWAP1 POP DUP6 JUMP JUMPDEST PUSH1 0x0 DUP1 SLOAD SWAP1 PUSH2 0x100 EXP SWAP1 DIV PUSH20 0xFFFFFFFFFFFFFFFFFFFFFFFFFFFFFFFFFFFFFFFF AND PUSH20 0xFFFFFFFFFFFFFFFFFFFFFFFFFFFFFFFFFFFFFFFF AND CALLER PUSH20 0xFFFFFFFFFFFFFFFFFFFFFFFFFFFFFFFFFFFFFFFF AND EQ PUSH2 0x6C2 JUMPI PUSH1 0x40 MLOAD PUSH32 0x8C379A000000000000000000000000000000000000000000000000000000000 DUP2 MSTORE PUSH1 0x4 ADD PUSH2 0x6B9 SWAP1 PUSH2 0xD6A JUMP JUMPDEST PUSH1 0x40 MLOAD DUP1 SWAP2 SUB SWAP1 REVERT JUMPDEST DUP1 PUSH1 0x2 SLOAD DUP2 GT ISZERO DUP1 ISZERO PUSH2 0x6D5 JUMPI POP PUSH1 0x0 DUP2 GT JUMPDEST PUSH2 0x714 JUMPI PUSH1 0x40 MLOAD PUSH32 0x8C379A000000000000000000000000000000000000000000000000000000000 DUP2 MSTORE PUSH1 0x4 ADD PUSH2 0x70B SWAP1 PUSH2 0xE0A JUMP JUMPDEST PUSH1 0x40 MLOAD DUP1 SWAP2 SUB SWAP1 REVERT JUMPDEST PUSH1 0x0 PUSH1 0x1 PUSH1 0x0 DUP5 DUP2 MSTORE PUSH1 0x20 ADD SWAP1 DUP2 MSTORE PUSH1 0x20 ADD PUSH1 0x0 KECCAK256 SWAP1 POP PUSH1 0x1 PUSH1 0x3 DUP2 GT ISZERO PUSH2 0x73F JUMPI PUSH2 0x73E PUSH2 0x108F JUMP JUMPDEST JUMPDEST DUP2 PUSH1 0x4 ADD PUSH1 0x0 SWAP1 SLOAD SWAP1 PUSH2 0x100 EXP SWAP1 DIV PUSH1 0xFF AND PUSH1 0x3 DUP2 GT ISZERO PUSH2 0x763 JUMPI PUSH2 0x762 PUSH2 0x108F JUMP JUMPDEST JUMPDEST EQ PUSH2 0x7A3 JUMPI PUSH1 0x40 MLOAD PUSH32 0x8C379A000000000000000000000000000000000000000000000000000000000 DUP2 MSTORE PUSH1 0x4 ADD PUSH2 0x79A SWAP1 PUSH2 0xD8A JUMP JUMPDEST PUSH1 0x40 MLOAD DUP1 SWAP2 SUB SWAP1 REVERT JUMPDEST PUSH1 0x2 DUP2 PUSH1 0x4 ADD PUSH1 0x0 PUSH2 0x100 EXP DUP2 SLOAD DUP2 PUSH1 0xFF MUL NOT AND SWAP1 DUP4 PUSH1 0x3 DUP2 GT ISZERO PUSH2 0x7CB JUMPI PUSH2 0x7CA PUSH2 0x108F JUMP JUMPDEST JUMPDEST MUL OR SWAP1 SSTORE POP PUSH32 0xE21FE02C1589242B30BE2057F54FD54B7DDC463695D19FFDB54F9EBB0584F24A DUP4 PUSH1 0x40 MLOAD PUSH2 0x7FF SWAP2 SWAP1 PUSH2 0xE2A JUMP JUMPDEST PUSH1 0x40 MLOAD DUP1 SWAP2 SUB SWAP1 LOG1 POP POP POP JUMP JUMPDEST PUSH1 0x0 DUP1 SLOAD SWAP1 PUSH2 0x100 EXP SWAP1 DIV PUSH20 0xFFFFFFFFFFFFFFFFFFFFFFFFFFFFFFFFFFFFFFFF AND PUSH20 0xFFFFFFFFFFFFFFFFFFFFFFFFFFFFFFFFFFFFFFFF AND CALLER PUSH20 0xFFFFFFFFFFFFFFFFFFFFFFFFFFFFFFFFFFFFFFFF AND EQ PUSH2 0x89A JUMPI PUSH1 0x40 MLOAD PUSH32 0x8C379A000000000000000000000000000000000000000000000000000000000 DUP2 MSTORE PUSH1 0x4 ADD PUSH2 0x891 SWAP1 PUSH2 0xD6A JUMP JUMPDEST PUSH1 0x40 MLOAD DUP1 SWAP2 SUB SWAP1 REVERT JUMPDEST DUP1 PUSH1 0x2 SLOAD DUP2 GT ISZERO DUP1 ISZERO PUSH2 0x8AD JUMPI POP PUSH1 0x0 DUP2 GT JUMPDEST PUSH2 0x8EC JUMPI PUSH1 0x40 MLOAD PUSH32 0x8C379A000000000000000000000000000000000000000000000000000000000 DUP2 MSTORE PUSH1 0x4 ADD PUSH2 0x8E3 SWAP1 PUSH2 0xE0A JUMP JUMPDEST PUSH1 0x40 MLOAD DUP1 SWAP2 SUB SWAP1 REVERT JUMPDEST PUSH1 0x0 PUSH1 0x1 PUSH1 0x0 DUP5 DUP2 MSTORE PUSH1 0x20 ADD SWAP1 DUP2 MSTORE PUSH1 0x20 ADD PUSH1 0x0 KECCAK256 SWAP1 POP PUSH1 0x0 PUSH1 0x3 DUP2 GT ISZERO PUSH2 0x917 JUMPI PUSH2 0x916 PUSH2 0x108F JUMP JUMPDEST JUMPDEST DUP2 PUSH1 0x4 ADD PUSH1 0x0 SWAP1 SLOAD SWAP1 PUSH2 0x100 EXP SWAP1 DIV PUSH1 0xFF AND PUSH1 0x3 DUP2 GT ISZERO PUSH2 0x93B JUMPI PUSH2 0x93A PUSH2 0x108F JUMP JUMPDEST JUMPDEST EQ PUSH2 0x97B JUMPI PUSH1 0x40 MLOAD PUSH32 0x8C379A000000000000000000000000000000000000000000000000000000000 DUP2 MSTORE PUSH1 0x4 ADD PUSH2 0x972 SWAP1 PUSH2 0xDEA JUMP JUMPDEST PUSH1 0x40 MLOAD DUP1 SWAP2 SUB SWAP1 REVERT JUMPDEST PUSH1 0x1 DUP2 PUSH1 0x4 ADD PUSH1 0x0 PUSH2 0x100 EXP DUP2 SLOAD DUP2 PUSH1 0xFF MUL NOT AND SWAP1 DUP4 PUSH1 0x3 DUP2 GT ISZERO PUSH2 0x9A3 JUMPI PUSH2 0x9A2 PUSH2 0x108F JUMP JUMPDEST JUMPDEST MUL OR SWAP1 SSTORE POP PUSH32 0x7232AFD803C786D2EADA771790C0FF2FC5E7221909AE5C06661697D8FD9F8CB DUP4 PUSH1 0x40 MLOAD PUSH2 0x9D7 SWAP2 SWAP1 PUSH2 0xE2A JUMP JUMPDEST PUSH1 0x40 MLOAD DUP1 SWAP2 SUB SWAP1 LOG1 POP POP POP JUMP JUMPDEST DUP3 DUP1 SLOAD PUSH2 0x9F0 SWAP1 PUSH2 0xFB4 JUMP JUMPDEST SWAP1 PUSH1 0x0 MSTORE PUSH1 0x20 PUSH1 0x0 KECCAK256 SWAP1 PUSH1 0x1F ADD PUSH1 0x20 SWAP1 DIV DUP2 ADD SWAP3 DUP3 PUSH2 0xA12 JUMPI PUSH1 0x0 DUP6 SSTORE PUSH2 0xA59 JUMP JUMPDEST DUP3 PUSH1 0x1F LT PUSH2 0xA2B JUMPI DUP1 MLOAD PUSH1 0xFF NOT AND DUP4 DUP1 ADD OR DUP6 SSTORE PUSH2 0xA59 JUMP JUMPDEST DUP3 DUP1 ADD PUSH1 0x1 ADD DUP6 SSTORE DUP3 ISZERO PUSH2 0xA59 JUMPI SWAP2 DUP3 ADD JUMPDEST DUP3 DUP2 GT ISZERO PUSH2 0xA58 JUMPI DUP3 MLOAD DUP3 SSTORE SWAP2 PUSH1 0x20 ADD SWAP2 SWAP1 PUSH1 0x1 ADD SWAP1 PUSH2 0xA3D JUMP JUMPDEST JUMPDEST POP SWAP1 POP PUSH2 0xA66 SWAP2 SWAP1 PUSH2 0xA6A JUMP JUMPDEST POP SWAP1 JUMP JUMPDEST JUMPDEST DUP1 DUP3 GT ISZERO PUSH2 0xA83 JUMPI PUSH1 0x0 DUP2 PUSH1 0x0 SWAP1 SSTORE POP PUSH1 0x1 ADD PUSH2 0xA6B JUMP JUMPDEST POP SWAP1 JUMP JUMPDEST PUSH1 0x0 PUSH2 0xA9A PUSH2 0xA95 DUP5 PUSH2 0xEC4 JUMP JUMPDEST PUSH2 0xE9F JUMP JUMPDEST SWAP1 POP DUP3 DUP2 MSTORE PUSH1 0x20 DUP2 ADD DUP5 DUP5 DUP5 ADD GT ISZERO PUSH2 0xAB6 JUMPI PUSH2 0xAB5 PUSH2 0x1121 JUMP JUMPDEST JUMPDEST PUSH2 0xAC1 DUP5 DUP3 DUP6 PUSH2 0xF72 JUMP JUMPDEST POP SWAP4 SWAP3 POP POP POP JUMP JUMPDEST PUSH1 0x0 DUP2 CALLDATALOAD SWAP1 POP PUSH2 0xAD8 DUP2 PUSH2 0x12BD JUMP JUMPDEST SWAP3 SWAP2 POP POP JUMP JUMPDEST PUSH1 0x0 DUP3 PUSH1 0x1F DUP4 ADD SLT PUSH2 0xAF3 JUMPI PUSH2 0xAF2 PUSH2 0x111C JUMP JUMPDEST JUMPDEST DUP2 CALLDATALOAD PUSH2 0xB03 DUP5 DUP3 PUSH1 0x20 DUP7 ADD PUSH2 0xA87 JUMP JUMPDEST SWAP2 POP POP SWAP3 SWAP2 POP POP JUMP JUMPDEST PUSH1 0x0 DUP2 CALLDATALOAD SWAP1 POP PUSH2 0xB1B DUP2 PUSH2 0x12D4 JUMP JUMPDEST SWAP3 SWAP2 POP POP JUMP JUMPDEST PUSH1 0x0 DUP1 PUSH1 0x0 PUSH1 0x60 DUP5 DUP7 SUB SLT ISZERO PUSH2 0xB3A JUMPI PUSH2 0xB39 PUSH2 0x112B JUMP JUMPDEST JUMPDEST PUSH1 0x0 PUSH2 0xB48 DUP7 DUP3 DUP8 ADD PUSH2 0xAC9 JUMP JUMPDEST SWAP4 POP POP PUSH1 0x20 DUP5 ADD CALLDATALOAD PUSH8 0xFFFFFFFFFFFFFFFF DUP2 GT ISZERO PUSH2 0xB69 JUMPI PUSH2 0xB68 PUSH2 0x1126 JUMP JUMPDEST JUMPDEST PUSH2 0xB75 DUP7 DUP3 DUP8 ADD PUSH2 0xADE JUMP JUMPDEST SWAP3 POP POP PUSH1 0x40 PUSH2 0xB86 DUP7 DUP3 DUP8 ADD PUSH2 0xB0C JUMP JUMPDEST SWAP2 POP POP SWAP3 POP SWAP3 POP SWAP3 JUMP JUMPDEST PUSH1 0x0 PUSH1 0x20 DUP3 DUP5 SUB SLT ISZERO PUSH2 0xBA6 JUMPI PUSH2 0xBA5 PUSH2 0x112B JUMP JUMPDEST JUMPDEST PUSH1 0x0 PUSH2 0xBB4 DUP5 DUP3 DUP6 ADD PUSH2 0xB0C JUMP JUMPDEST SWAP2 POP POP SWAP3 SWAP2 POP POP JUMP JUMPDEST PUSH2 0xBC6 DUP2 PUSH2 0xF11 JUMP JUMPDEST DUP3 MSTORE POP POP JUMP JUMPDEST PUSH2 0xBD5 DUP2 PUSH2 0xF60 JUMP JUMPDEST DUP3 MSTORE POP POP JUMP JUMPDEST PUSH1 0x0 PUSH2 0xBE6 DUP3 PUSH2 0xEF5 JUMP JUMPDEST PUSH2 0xBF0 DUP2 DUP6 PUSH2 0xF00 JUMP JUMPDEST SWAP4 POP PUSH2 0xC00 DUP2 DUP6 PUSH1 0x20 DUP7 ADD PUSH2 0xF81 JUMP JUMPDEST PUSH2 0xC09 DUP2 PUSH2 0x1130 JUMP JUMPDEST DUP5 ADD SWAP2 POP POP SWAP3 SWAP2 POP POP JUMP JUMPDEST PUSH1 0x0 PUSH2 0xC21 PUSH1 0x25 DUP4 PUSH2 0xF00 JUMP JUMPDEST SWAP2 POP PUSH2 0xC2C DUP3 PUSH2 0x1141 JUMP JUMPDEST PUSH1 0x40 DUP3 ADD SWAP1 POP SWAP2 SWAP1 POP JUMP JUMPDEST PUSH1 0x0 PUSH2 0xC44 PUSH1 0x19 DUP4 PUSH2 0xF00 JUMP JUMPDEST SWAP2 POP PUSH2 0xC4F DUP3 PUSH2 0x1190 JUMP JUMPDEST PUSH1 0x20 DUP3 ADD SWAP1 POP SWAP2 SWAP1 POP JUMP JUMPDEST PUSH1 0x0 PUSH2 0xC67 PUSH1 0x19 DUP4 PUSH2 0xF00 JUMP JUMPDEST SWAP2 POP PUSH2 0xC72 DUP3 PUSH2 0x11B9 JUMP JUMPDEST PUSH1 0x20 DUP3 ADD SWAP1 POP SWAP2 SWAP1 POP JUMP JUMPDEST PUSH1 0x0 PUSH2 0xC8A PUSH1 0x24 DUP4 PUSH2 0xF00 JUMP JUMPDEST SWAP2 POP PUSH2 0xC95 DUP3 PUSH2 0x11E2 JUMP JUMPDEST PUSH1 0x40 DUP3 ADD SWAP1 POP SWAP2 SWAP1 POP JUMP JUMPDEST PUSH1 0x0 PUSH2 0xCAD PUSH1 0x26 DUP4 PUSH2 0xF00 JUMP JUMPDEST SWAP2 POP PUSH2 0xCB8 DUP3 PUSH2 0x1231 JUMP JUMPDEST PUSH1 0x40 DUP3 ADD SWAP1 POP SWAP2 SWAP1 POP JUMP JUMPDEST PUSH1 0x0 PUSH2 0xCD0 PUSH1 0x14 DUP4 PUSH2 0xF00 JUMP JUMPDEST SWAP2 POP PUSH2 0xCDB DUP3 PUSH2 0x1280 JUMP JUMPDEST PUSH1 0x20 DUP3 ADD SWAP1 POP SWAP2 SWAP1 POP JUMP JUMPDEST PUSH2 0xCEF DUP2 PUSH2 0xF56 JUMP JUMPDEST DUP3 MSTORE POP POP JUMP JUMPDEST PUSH1 0x0 PUSH1 0x20 DUP3 ADD SWAP1 POP PUSH2 0xD0A PUSH1 0x0 DUP4 ADD DUP5 PUSH2 0xBBD JUMP JUMPDEST SWAP3 SWAP2 POP POP JUMP JUMPDEST PUSH1 0x0 PUSH1 0xA0 DUP3 ADD SWAP1 POP PUSH2 0xD25 PUSH1 0x0 DUP4 ADD DUP9 PUSH2 0xBBD JUMP JUMPDEST PUSH2 0xD32 PUSH1 0x20 DUP4 ADD DUP8 PUSH2 0xBBD JUMP JUMPDEST DUP2 DUP2 SUB PUSH1 0x40 DUP4 ADD MSTORE PUSH2 0xD44 DUP2 DUP7 PUSH2 0xBDB JUMP JUMPDEST SWAP1 POP PUSH2 0xD53 PUSH1 0x60 DUP4 ADD DUP6 PUSH2 0xCE6 JUMP JUMPDEST PUSH2 0xD60 PUSH1 0x80 DUP4 ADD DUP5 PUSH2 0xBCC JUMP JUMPDEST SWAP7 SWAP6 POP POP POP POP POP POP JUMP JUMPDEST PUSH1 0x0 PUSH1 0x20 DUP3 ADD SWAP1 POP DUP2 DUP2 SUB PUSH1 0x0 DUP4 ADD MSTORE PUSH2 0xD83 DUP2 PUSH2 0xC14 JUMP JUMPDEST SWAP1 POP SWAP2 SWAP1 POP JUMP JUMPDEST PUSH1 0x0 PUSH1 0x20 DUP3 ADD SWAP1 POP DUP2 DUP2 SUB PUSH1 0x0 DUP4 ADD MSTORE PUSH2 0xDA3 DUP2 PUSH2 0xC37 JUMP JUMPDEST SWAP1 POP SWAP2 SWAP1 POP JUMP JUMPDEST PUSH1 0x0 PUSH1 0x20 DUP3 ADD SWAP1 POP DUP2 DUP2 SUB PUSH1 0x0 DUP4 ADD MSTORE PUSH2 0xDC3 DUP2 PUSH2 0xC5A JUMP JUMPDEST SWAP1 POP SWAP2 SWAP1 POP JUMP JUMPDEST PUSH1 0x0 PUSH1 0x20 DUP3 ADD SWAP1 POP DUP2 DUP2 SUB PUSH1 0x0 DUP4 ADD MSTORE PUSH2 0xDE3 DUP2 PUSH2 0xC7D JUMP JUMPDEST SWAP1 POP SWAP2 SWAP1 POP JUMP JUMPDEST PUSH1 0x0 PUSH1 0x20 DUP3 ADD SWAP1 POP DUP2 DUP2 SUB PUSH1 0x0 DUP4 ADD MSTORE PUSH2 0xE03 DUP2 PUSH2 0xCA0 JUMP JUMPDEST SWAP1 POP SWAP2 SWAP1 POP JUMP JUMPDEST PUSH1 0x0 PUSH1 0x20 DUP3 ADD SWAP1 POP DUP2 DUP2 SUB PUSH1 0x0 DUP4 ADD MSTORE PUSH2 0xE23 DUP2 PUSH2 0xCC3 JUMP JUMPDEST SWAP1 POP SWAP2 SWAP1 POP JUMP JUMPDEST PUSH1 0x0 PUSH1 0x20 DUP3 ADD SWAP1 POP PUSH2 0xE3F PUSH1 0x0 DUP4 ADD DUP5 PUSH2 0xCE6 JUMP JUMPDEST SWAP3 SWAP2 POP POP JUMP JUMPDEST PUSH1 0x0 PUSH1 0xA0 DUP3 ADD SWAP1 POP PUSH2 0xE5A PUSH1 0x0 DUP4 ADD DUP9 PUSH2 0xCE6 JUMP JUMPDEST PUSH2 0xE67 PUSH1 0x20 DUP4 ADD DUP8 PUSH2 0xBBD JUMP JUMPDEST PUSH2 0xE74 PUSH1 0x40 DUP4 ADD DUP7 PUSH2 0xBBD JUMP JUMPDEST DUP2 DUP2 SUB PUSH1 0x60 DUP4 ADD MSTORE PUSH2 0xE86 DUP2 DUP6 PUSH2 0xBDB JUMP JUMPDEST SWAP1 POP PUSH2 0xE95 PUSH1 0x80 DUP4 ADD DUP5 PUSH2 0xCE6 JUMP JUMPDEST SWAP7 SWAP6 POP POP POP POP POP POP JUMP JUMPDEST PUSH1 0x0 PUSH2 0xEA9 PUSH2 0xEBA JUMP JUMPDEST SWAP1 POP PUSH2 0xEB5 DUP3 DUP3 PUSH2 0xFE6 JUMP JUMPDEST SWAP2 SWAP1 POP JUMP JUMPDEST PUSH1 0x0 PUSH1 0x40 MLOAD SWAP1 POP SWAP1 JUMP JUMPDEST PUSH1 0x0 PUSH8 0xFFFFFFFFFFFFFFFF DUP3 GT ISZERO PUSH2 0xEDF JUMPI PUSH2 0xEDE PUSH2 0x10ED JUMP JUMPDEST JUMPDEST PUSH2 0xEE8 DUP3 PUSH2 0x1130 JUMP JUMPDEST SWAP1 POP PUSH1 0x20 DUP2 ADD SWAP1 POP SWAP2 SWAP1 POP JUMP JUMPDEST PUSH1 0x0 DUP2 MLOAD SWAP1 POP SWAP2 SWAP1 POP JUMP JUMPDEST PUSH1 0x0 DUP3 DUP3 MSTORE PUSH1 0x20 DUP3 ADD SWAP1 POP SWAP3 SWAP2 POP POP JUMP JUMPDEST PUSH1 0x0 PUSH2 0xF1C DUP3 PUSH2 0xF36 JUMP JUMPDEST SWAP1 POP SWAP2 SWAP1 POP JUMP JUMPDEST PUSH1 0x0 DUP2 SWAP1 POP PUSH2 0xF31 DUP3 PUSH2 0x12A9 JUMP JUMPDEST SWAP2 SWAP1 POP JUMP JUMPDEST PUSH1 0x0 PUSH20 0xFFFFFFFFFFFFFFFFFFFFFFFFFFFFFFFFFFFFFFFF DUP3 AND SWAP1 POP SWAP2 SWAP1 POP JUMP JUMPDEST PUSH1 0x0 DUP2 SWAP1 POP SWAP2 SWAP1 POP JUMP JUMPDEST PUSH1 0x0 PUSH2 0xF6B DUP3 PUSH2 0xF23 JUMP JUMPDEST SWAP1 POP SWAP2 SWAP1 POP JUMP JUMPDEST DUP3 DUP2 DUP4 CALLDATACOPY PUSH1 0x0 DUP4 DUP4 ADD MSTORE POP POP POP JUMP JUMPDEST PUSH1 0x0 JUMPDEST DUP4 DUP2 LT ISZERO PUSH2 0xF9F JUMPI DUP1 DUP3 ADD MLOAD DUP2 DUP5 ADD MSTORE PUSH1 0x20 DUP2 ADD SWAP1 POP PUSH2 0xF84 JUMP JUMPDEST DUP4 DUP2 GT ISZERO PUSH2 0xFAE JUMPI PUSH1 0x0 DUP5 DUP5 ADD MSTORE JUMPDEST POP POP POP POP JUMP JUMPDEST PUSH1 0x0 PUSH1 0x2 DUP3 DIV SWAP1 POP PUSH1 0x1 DUP3 AND DUP1 PUSH2 0xFCC JUMPI PUSH1 0x7F DUP3 AND SWAP2 POP JUMPDEST PUSH1 0x20 DUP3 LT DUP2 EQ ISZERO PUSH2 0xFE0 JUMPI PUSH2 0xFDF PUSH2 0x10BE JUMP JUMPDEST JUMPDEST POP SWAP2 SWAP1 POP JUMP JUMPDEST PUSH2 0xFEF DUP3 PUSH2 0x1130 JUMP JUMPDEST DUP2 ADD DUP2 DUP2 LT PUSH8 0xFFFFFFFFFFFFFFFF DUP3 GT OR ISZERO PUSH2 0x100E JUMPI PUSH2 0x100D PUSH2 0x10ED JUMP JUMPDEST JUMPDEST DUP1 PUSH1 0x40 MSTORE POP POP POP JUMP JUMPDEST PUSH1 0x0 PUSH2 0x1022 DUP3 PUSH2 0xF56 JUMP JUMPDEST SWAP2 POP PUSH32 0xFFFFFFFFFFFFFFFFFFFFFFFFFFFFFFFFFFFFFFFFFFFFFFFFFFFFFFFFFFFFFFFF DUP3 EQ ISZERO PUSH2 0x1055 JUMPI PUSH2 0x1054 PUSH2 0x1060 JUMP JUMPDEST JUMPDEST PUSH1 0x1 DUP3 ADD SWAP1 POP SWAP2 SWAP1 POP JUMP JUMPDEST PUSH32 0x4E487B7100000000000000000000000000000000000000000000000000000000 PUSH1 0x0 MSTORE PUSH1 0x11 PUSH1 0x4 MSTORE PUSH1 0x24 PUSH1 0x0 REVERT JUMPDEST PUSH32 0x4E487B7100000000000000000000000000000000000000000000000000000000 PUSH1 0x0 MSTORE PUSH1 0x21 PUSH1 0x4 MSTORE PUSH1 0x24 PUSH1 0x0 REVERT JUMPDEST PUSH32 0x4E487B7100000000000000000000000000000000000000000000000000000000 PUSH1 0x0 MSTORE PUSH1 0x22 PUSH1 0x4 MSTORE PUSH1 0x24 PUSH1 0x0 REVERT JUMPDEST PUSH32 0x4E487B7100000000000000000000000000000000000000000000000000000000 PUSH1 0x0 MSTORE PUSH1 0x41 PUSH1 0x4 MSTORE PUSH1 0x24 PUSH1 0x0 REVERT JUMPDEST PUSH1 0x0 DUP1 REVERT JUMPDEST PUSH1 0x0 DUP1 REVERT JUMPDEST PUSH1 0x0 DUP1 REVERT JUMPDEST PUSH1 0x0 DUP1 REVERT JUMPDEST PUSH1 0x0 PUSH1 0x1F NOT PUSH1 0x1F DUP4 ADD AND SWAP1 POP SWAP2 SWAP1 POP JUMP JUMPDEST PUSH32 0x4F6E6C7920746865206F776E65722063616E2063616C6C20746869732066756E PUSH1 0x0 DUP3 ADD MSTORE PUSH32 0x6374696F6E000000000000000000000000000000000000000000000000000000 PUSH1 0x20 DUP3 ADD MSTORE POP JUMP JUMPDEST PUSH32 0x4F726465722063616E6E6F7420626520636F6D706C6574656400000000000000 PUSH1 0x0 DUP3 ADD MSTORE POP JUMP JUMPDEST PUSH32 0x4F726465722063616E6E6F742062652063616E63656C6C656400000000000000 PUSH1 0x0 DUP3 ADD MSTORE POP JUMP JUMPDEST PUSH32 0x4F6E6C79207468652073656E6465722063616E2063616E63656C20746865206F PUSH1 0x0 DUP3 ADD MSTORE PUSH32 0x7264657200000000000000000000000000000000000000000000000000000000 PUSH1 0x20 DUP3 ADD MSTORE POP JUMP JUMPDEST PUSH32 0x4F726465722063616E6E6F742062652064656C697665726564206F722063616E PUSH1 0x0 DUP3 ADD MSTORE PUSH32 0x63656C6C65640000000000000000000000000000000000000000000000000000 PUSH1 0x20 DUP3 ADD MSTORE POP JUMP JUMPDEST PUSH32 0x4F7264657220646F6573206E6F74206578697374000000000000000000000000 PUSH1 0x0 DUP3 ADD MSTORE POP JUMP JUMPDEST PUSH1 0x4 DUP2 LT PUSH2 0x12BA JUMPI PUSH2 0x12B9 PUSH2 0x108F JUMP JUMPDEST JUMPDEST POP JUMP JUMPDEST PUSH2 0x12C6 DUP2 PUSH2 0xF11 JUMP JUMPDEST DUP2 EQ PUSH2 0x12D1 JUMPI PUSH1 0x0 DUP1 REVERT JUMPDEST POP JUMP JUMPDEST PUSH2 0x12DD DUP2 PUSH2 0xF56 JUMP JUMPDEST DUP2 EQ PUSH2 0x12E8 JUMPI PUSH1 0x0 DUP1 REVERT JUMPDEST POP JUMP INVALID LOG2 PUSH5 0x6970667358 0x22 SLT KECCAK256 JUMP DUP14 OR PUSH22 0x356C7FD2B423367BEC56F49BEF62078736DAC289435C SWAP11 EXTCODEHASH 0xC8 0xAC DUP8 0x4B PUSH5 0x736F6C6343 STOP ADDMOD SDIV STOP CALLER "
		},
		"gasEstimates": {
			"creation": {
				"codeDepositCost": "979400",
				"executionCost": "25287",
				"totalCost": "1004687"
			},
			"external": {
				"cancelOrder(uint256)": "infinite",
				"completeOrder(uint256)": "infinite",
				"confirmDelivery(uint256)": "infinite",
				"orderCount()": "2452",
				"orders(uint256)": "infinite",
				"owner()": "2511",
				"placeOrder(address,string,uint256)": "infinite"
			}
		},
		"methodIdentifiers": {
			"cancelOrder(uint256)": "514fcac7",
			"completeOrder(uint256)": "b6adaaff",
			"confirmDelivery(uint256)": "fd84cb97",
			"orderCount()": "2453ffa8",
			"orders(uint256)": "a85c38ef",
			"owner()": "8da5cb5b",
			"placeOrder(address,string,uint256)": "21d4209c"
		}
	},
	"abi": [
		{
			"inputs": [],
			"stateMutability": "nonpayable",
			"type": "constructor"
		},
		{
			"anonymous": false,
			"inputs": [
				{
					"indexed": false,
					"internalType": "uint256",
					"name": "orderId",
					"type": "uint256"
				}
			],
			"name": "OrderCancelled",
			"type": "event"
		},
		{
			"anonymous": false,
			"inputs": [
				{
					"indexed": false,
					"internalType": "uint256",
					"name": "orderId",
					"type": "uint256"
				}
			],
			"name": "OrderDelivered",
			"type": "event"
		},
		{
			"anonymous": false,
			"inputs": [
				{
					"indexed": false,
					"internalType": "uint256",
					"name": "orderId",
					"type": "uint256"
				}
			],
			"name": "OrderInTransit",
			"type": "event"
		},
		{
			"anonymous": false,
			"inputs": [
				{
					"indexed": false,
					"internalType": "uint256",
					"name": "orderId",
					"type": "uint256"
				},
				{
					"indexed": false,
					"internalType": "address",
					"name": "sender",
					"type": "address"
				},
				{
					"indexed": false,
					"internalType": "address",
					"name": "receiver",
					"type": "address"
				},
				{
					"indexed": false,
					"internalType": "string",
					"name": "orderDetails",
					"type": "string"
				},
				{
					"indexed": false,
					"internalType": "uint256",
					"name": "orderAmount",
					"type": "uint256"
				}
			],
			"name": "OrderPlaced",
			"type": "event"
		},
		{
			"inputs": [
				{
					"internalType": "uint256",
					"name": "_orderId",
					"type": "uint256"
				}
			],
			"name": "cancelOrder",
			"outputs": [],
			"stateMutability": "nonpayable",
			"type": "function"
		},
		{
			"inputs": [
				{
					"internalType": "uint256",
					"name": "_orderId",
					"type": "uint256"
				}
			],
			"name": "completeOrder",
			"outputs": [],
			"stateMutability": "nonpayable",
			"type": "function"
		},
		{
			"inputs": [
				{
					"internalType": "uint256",
					"name": "_orderId",
					"type": "uint256"
				}
			],
			"name": "confirmDelivery",
			"outputs": [],
			"stateMutability": "nonpayable",
			"type": "function"
		},
		{
			"inputs": [],
			"name": "orderCount",
			"outputs": [
				{
					"internalType": "uint256",
					"name": "",
					"type": "uint256"
				}
			],
			"stateMutability": "view",
			"type": "function"
		},
		{
			"inputs": [
				{
					"internalType": "uint256",
					"name": "",
					"type": "uint256"
				}
			],
			"name": "orders",
			"outputs": [
				{
					"internalType": "address",
					"name": "sender",
					"type": "address"
				},
				{
					"internalType": "address",
					"name": "receiver",
					"type": "address"
				},
				{
					"internalType": "string",
					"name": "orderDetails",
					"type": "string"
				},
				{
					"internalType": "uint256",
					"name": "orderAmount",
					"type": "uint256"
				},
				{
					"internalType": "enum FoodDeliveryContract.OrderStatus",
					"name": "status",
					"type": "uint8"
				}
			],
			"stateMutability": "view",
			"type": "function"
		},
		{
			"inputs": [],
			"name": "owner",
			"outputs": [
				{
					"internalType": "address",
					"name": "",
					"type": "address"
				}
			],
			"stateMutability": "view",
			"type": "function"
		},
		{
			"inputs": [
				{
					"internalType": "address",
					"name": "_receiver",
					"type": "address"
				},
				{
					"internalType": "string",
					"name": "_orderDetails",
					"type": "string"
				},
				{
					"internalType": "uint256",
					"name": "_orderAmount",
					"type": "uint256"
				}
			],
			"name": "placeOrder",
			"outputs": [],
			"stateMutability": "nonpayable",
			"type": "function"
		}
	]
}